{
  "_format": "hh-sol-artifact-1",
  "contractName": "Billionaire",
  "sourceName": "contracts/billionaire.sol",
  "abi": [
    {
      "inputs": [],
      "name": "InvalidInitialization",
      "type": "error"
    },
    {
      "inputs": [],
      "name": "NotInitializing",
      "type": "error"
    },
    {
      "anonymous": false,
      "inputs": [
        {
          "indexed": false,
          "internalType": "uint64",
          "name": "version",
          "type": "uint64"
        }
      ],
      "name": "Initialized",
      "type": "event"
    },
    {
      "inputs": [
        {
          "internalType": "uint256",
          "name": "",
          "type": "uint256"
        }
      ],
      "name": "accounts",
      "outputs": [
        {
          "internalType": "address",
          "name": "adr",
          "type": "address"
        },
        {
          "internalType": "uint32",
          "name": "parentRef",
          "type": "uint32"
        }
      ],
      "stateMutability": "view",
      "type": "function"
    },
    {
      "inputs": [
        {
          "internalType": "uint16",
          "name": "strInd",
          "type": "uint16"
        },
        {
          "internalType": "uint32",
          "name": "parentRef",
          "type": "uint32"
        }
      ],
      "name": "addAddressToStreet",
      "outputs": [],
      "stateMutability": "payable",
      "type": "function"
    },
    {
      "inputs": [
        {
          "internalType": "address",
          "name": "adr",
          "type": "address"
        }
      ],
      "name": "addDeveloper",
      "outputs": [],
      "stateMutability": "nonpayable",
      "type": "function"
    },
    {
      "inputs": [
        {
          "internalType": "address",
          "name": "adr",
          "type": "address"
        },
        {
          "internalType": "uint16",
          "name": "strInd",
          "type": "uint16"
        },
        {
          "internalType": "bool",
          "name": "unlim",
          "type": "bool"
        }
      ],
      "name": "addDeveloperToStreet",
      "outputs": [],
      "stateMutability": "nonpayable",
      "type": "function"
    },
    {
      "inputs": [
        {
          "internalType": "uint256",
          "name": "price",
          "type": "uint256"
        },
        {
          "internalType": "uint256",
          "name": "openDate",
          "type": "uint256"
        },
        {
          "internalType": "uint256",
          "name": "openWLDate",
          "type": "uint256"
        }
      ],
      "name": "addStreet",
      "outputs": [],
      "stateMutability": "nonpayable",
      "type": "function"
    },
    {
      "inputs": [
        {
          "internalType": "address",
          "name": "adr",
          "type": "address"
        },
        {
          "internalType": "uint16",
          "name": "strInd",
          "type": "uint16"
        }
      ],
      "name": "addToWL",
      "outputs": [],
      "stateMutability": "nonpayable",
      "type": "function"
    },
    {
      "inputs": [
        {
          "internalType": "uint16",
          "name": "strInd",
          "type": "uint16"
        },
        {
          "internalType": "uint256",
          "name": "accInd",
          "type": "uint256"
        }
      ],
      "name": "getAccStreet",
      "outputs": [
        {
          "components": [
            {
              "internalType": "bool",
              "name": "unlim",
              "type": "bool"
            },
            {
              "internalType": "bool",
              "name": "hasStreet",
              "type": "bool"
            },
            {
              "internalType": "int16",
              "name": "steps",
              "type": "int16"
            },
            {
              "internalType": "uint32",
              "name": "openPos",
              "type": "uint32"
            }
          ],
          "internalType": "struct Billionaire.AccStreet",
          "name": "",
          "type": "tuple"
        }
      ],
      "stateMutability": "view",
      "type": "function"
    },
    {
      "inputs": [
        {
          "internalType": "address",
          "name": "adr",
          "type": "address"
        }
      ],
      "name": "getAccountInd",
      "outputs": [
        {
          "internalType": "uint256",
          "name": "",
          "type": "uint256"
        }
      ],
      "stateMutability": "view",
      "type": "function"
    },
    {
      "inputs": [],
      "name": "getAccountsLength",
      "outputs": [
        {
          "internalType": "uint256",
          "name": "",
          "type": "uint256"
        }
      ],
      "stateMutability": "view",
      "type": "function"
    },
    {
      "inputs": [
        {
          "internalType": "uint16",
          "name": "strInd",
          "type": "uint16"
        },
        {
          "internalType": "uint32",
          "name": "pos",
          "type": "uint32"
        }
      ],
      "name": "getPoint",
      "outputs": [
        {
          "internalType": "uint32",
          "name": "",
          "type": "uint32"
        }
      ],
      "stateMutability": "view",
      "type": "function"
    },
    {
      "inputs": [],
      "name": "getStreetsLength",
      "outputs": [
        {
          "internalType": "uint256",
          "name": "",
          "type": "uint256"
        }
      ],
      "stateMutability": "view",
      "type": "function"
    },
    {
      "inputs": [],
      "name": "initialize",
      "outputs": [],
      "stateMutability": "nonpayable",
      "type": "function"
    },
    {
      "inputs": [
        {
          "internalType": "uint256",
          "name": "",
          "type": "uint256"
        }
      ],
      "name": "streets",
      "outputs": [
        {
          "internalType": "uint32",
          "name": "freeLeft",
          "type": "uint32"
        },
        {
          "internalType": "uint32",
          "name": "freeRight",
          "type": "uint32"
        },
        {
          "internalType": "uint256",
          "name": "price",
          "type": "uint256"
        },
        {
          "internalType": "uint256",
          "name": "openDate",
          "type": "uint256"
        },
        {
          "internalType": "uint256",
          "name": "openWLDate",
          "type": "uint256"
        }
      ],
      "stateMutability": "view",
      "type": "function"
    }
  ],
  "bytecode": "0x608060405234801561001057600080fd5b506125e6806100206000396000f3fe6080604052600436106100c25760003560e01c80638129fc1c1161007f578063df8d1f2511610059578063df8d1f2514610256578063e8daa3e414610293578063f2a40db8146102d0578063f3a7ff5f1461030e576100c2565b80638129fc1c146101d5578063c48afc6b146101ec578063d1da5a201461022d576100c2565b8063099dc18b146100c7578063101ea11f146100f257806314f326a11461011b57806317ef8a6e1461014657806322fbf1e814610183578063414d9cc3146101ac575b600080fd5b3480156100d357600080fd5b506100dc61032a565b6040516100e99190611b6e565b60405180910390f35b3480156100fe57600080fd5b5061011960048036038101906101149190611c5e565b610336565b005b34801561012757600080fd5b50610130610516565b60405161013d9190611b6e565b60405180910390f35b34801561015257600080fd5b5061016d60048036038101906101689190611ced565b610523565b60405161017a9190611d3c565b60405180910390f35b34801561018f57600080fd5b506101aa60048036038101906101a59190611d57565b6105d1565b005b3480156101b857600080fd5b506101d360048036038101906101ce9190611db0565b6106cc565b005b3480156101e157600080fd5b506101ea610851565b005b3480156101f857600080fd5b50610213600480360381019061020e9190611e03565b610a40565b604051610224959493929190611e30565b60405180910390f35b34801561023957600080fd5b50610254600480360381019061024f9190611e83565b610aa6565b005b34801561026257600080fd5b5061027d60048036038101906102789190611ec3565b610c57565b60405161028a9190611f92565b60405180910390f35b34801561029f57600080fd5b506102ba60048036038101906102b59190611d57565b610d9c565b6040516102c79190611b6e565b60405180910390f35b3480156102dc57600080fd5b506102f760048036038101906102f29190611e03565b610dfb565b604051610305929190611fbc565b60405180910390f35b61032860048036038101906103239190611ced565b610e5f565b005b60008080549050905090565b600360009054906101000a900473ffffffffffffffffffffffffffffffffffffffff1673ffffffffffffffffffffffffffffffffffffffff163373ffffffffffffffffffffffffffffffffffffffff16146103c6576040517f08c379a00000000000000000000000000000000000000000000000000000000081526004016103bd90612042565b60405180910390fd5b818061ffff1660008054905011610412576040517f08c379a0000000000000000000000000000000000000000000000000000000008152600401610409906120ae565b60405180910390fd5b8360008173ffffffffffffffffffffffffffffffffffffffff163b1461046d576040517f08c379a00000000000000000000000000000000000000000000000000000000081526004016104649061211a565b60405180910390fd5b600061047a866001611486565b9050600060018263ffffffff16815481106104985761049761213a565b5b9060005260206000209060020201905060008160010160008861ffff1661ffff168152602001908152602001600020905060018160000160016101000a81548160ff021916908315150217905550858160000160006101000a81548160ff02191690831515021790555061050c878461165a565b5050505050505050565b6000600180549050905090565b6000828061ffff1660008054905011610571576040517f08c379a0000000000000000000000000000000000000000000000000000000008152600401610568906120ae565b60405180910390fd5b60008461ffff16815481106105895761058861213a565b5b906000526020600020906006020160040160008463ffffffff1663ffffffff16815260200190815260200160002060009054906101000a900463ffffffff1691505092915050565b600360009054906101000a900473ffffffffffffffffffffffffffffffffffffffff1673ffffffffffffffffffffffffffffffffffffffff163373ffffffffffffffffffffffffffffffffffffffff1614610661576040517f08c379a000000000000000000000000000000000000000000000000000000000815260040161065890612042565b60405180910390fd5b8060008173ffffffffffffffffffffffffffffffffffffffff163b146106bc576040517f08c379a00000000000000000000000000000000000000000000000000000000081526004016106b39061211a565b60405180910390fd5b6106c7826001611486565b505050565b600360009054906101000a900473ffffffffffffffffffffffffffffffffffffffff1673ffffffffffffffffffffffffffffffffffffffff163373ffffffffffffffffffffffffffffffffffffffff161461075c576040517f08c379a000000000000000000000000000000000000000000000000000000000815260040161075390612042565b60405180910390fd5b600080600181600181540180825580915050039060005260206000209060060201905060018160000160006101000a81548163ffffffff021916908363ffffffff160217905550838160010181905550828160020181905550818160030181905550600060016000805490506107d29190612198565b9050610802600360009054906101000a900473ffffffffffffffffffffffffffffffffffffffff16826001610336565b60028260000160006101000a81548163ffffffff021916908363ffffffff16021790555060038260000160046101000a81548163ffffffff021916908363ffffffff1602179055505050505050565b600061085b6117e4565b905060008160000160089054906101000a900460ff1615905060008260000160009054906101000a900467ffffffffffffffff1690506000808267ffffffffffffffff161480156108a95750825b9050600060018367ffffffffffffffff161480156108de575060003073ffffffffffffffffffffffffffffffffffffffff163b145b9050811580156108ec575080155b15610923576040517ff92ee8a900000000000000000000000000000000000000000000000000000000815260040160405180910390fd5b60018560000160006101000a81548167ffffffffffffffff021916908367ffffffffffffffff16021790555083156109735760018560000160086101000a81548160ff0219169083151502179055505b33600360006101000a81548173ffffffffffffffffffffffffffffffffffffffff021916908373ffffffffffffffffffffffffffffffffffffffff16021790555060018081600181540180825580915050039060005260206000209050506109dc336001611486565b508315610a395760008560000160086101000a81548160ff0219169083151502179055507fc7f505b2f371ae2175ee4913f4499e1f2633a7b5936321eed1cdaeb6115181d26001604051610a309190612225565b60405180910390a15b5050505050565b60008181548110610a5057600080fd5b90600052602060002090600602016000915090508060000160009054906101000a900463ffffffff16908060000160049054906101000a900463ffffffff16908060010154908060020154908060030154905085565b600360009054906101000a900473ffffffffffffffffffffffffffffffffffffffff1673ffffffffffffffffffffffffffffffffffffffff163373ffffffffffffffffffffffffffffffffffffffff1614610b36576040517f08c379a0000000000000000000000000000000000000000000000000000000008152600401610b2d90612042565b60405180910390fd5b808061ffff1660008054905011610b82576040517f08c379a0000000000000000000000000000000000000000000000000000000008152600401610b79906120ae565b60405180910390fd5b8260008173ffffffffffffffffffffffffffffffffffffffff163b14610bdd576040517f08c379a0000000000000000000000000000000000000000000000000000000008152600401610bd49061211a565b60405180910390fd5b6000610bea856001611486565b90506000808561ffff1681548110610c0557610c0461213a565b5b9060005260206000209060060201905060018160050160008463ffffffff1663ffffffff16815260200190815260200160002060006101000a81548160ff021916908315150217905550505050505050565b610c5f611b20565b828061ffff1660008054905011610cab576040517f08c379a0000000000000000000000000000000000000000000000000000000008152600401610ca2906120ae565b60405180910390fd5b8361ffff1660008054905011610cc057600080fd5b8260018054905011610cd157600080fd5b60018381548110610ce557610ce461213a565b5b906000526020600020906002020160010160008561ffff1661ffff1681526020019081526020016000206040518060800160405290816000820160009054906101000a900460ff161515151581526020016000820160019054906101000a900460ff161515151581526020016000820160029054906101000a900460010b60010b60010b81526020016000820160049054906101000a900463ffffffff1663ffffffff1663ffffffff168152505091505092915050565b6000600260008373ffffffffffffffffffffffffffffffffffffffff1673ffffffffffffffffffffffffffffffffffffffff16815260200190815260200160002060009054906101000a900463ffffffff1663ffffffff169050919050565b60018181548110610e0b57600080fd5b90600052602060002090600202016000915090508060000160009054906101000a900473ffffffffffffffffffffffffffffffffffffffff16908060000160149054906101000a900463ffffffff16905082565b818061ffff1660008054905011610eab576040517f08c379a0000000000000000000000000000000000000000000000000000000008152600401610ea2906120ae565b60405180910390fd5b3360008173ffffffffffffffffffffffffffffffffffffffff163b14610f06576040517f08c379a0000000000000000000000000000000000000000000000000000000008152600401610efd9061211a565b60405180910390fd5b8263ffffffff1660018054905011610f53576040517f08c379a0000000000000000000000000000000000000000000000000000000008152600401610f4a9061228c565b60405180910390fd5b6000808561ffff1681548110610f6c57610f6b61213a565b5b9060005260206000209060060201905080600101543414610fc2576040517f08c379a0000000000000000000000000000000000000000000000000000000008152600401610fb9906122f8565b60405180910390fd5b6000610fe43360008763ffffffff1614610fdc5786610fdf565b60015b611486565b9050428260020154108061103257508160050160008263ffffffff1663ffffffff16815260200190815260200160002060009054906101000a900460ff1680156110315750428260030154105b5b611071576040517f08c379a000000000000000000000000000000000000000000000000000000000815260040161106890612364565b60405180910390fd5b600060018263ffffffff168154811061108d5761108c61213a565b5b9060005260206000209060020201905060008160010160008961ffff1661ffff16815260200190815260200160002090508060000160019054906101000a900460ff1615611110576040517f08c379a0000000000000000000000000000000000000000000000000000000008152600401611107906123f6565b60405180910390fd5b60018460000160049054906101000a900463ffffffff166111319190612416565b63ffffffff168460000160009054906101000a900463ffffffff1663ffffffff1610156111645761116388600161165a565b5b600060018560000160049054906101000a900463ffffffff1663ffffffff16901c905060008560040160008363ffffffff1663ffffffff16815260200190815260200160002060009054906101000a900463ffffffff169050600060018263ffffffff16815481106111d9576111d861213a565b5b9060005260206000209060020201905060008160010160008d61ffff1661ffff16815260200190815260200160002090508060000160009054906101000a900460ff168061123e5750600260010b8160000160029054906101000a900460010b60010b125b156112525761124d8c8461165a565b611277565b60008160000160046101000a81548163ffffffff021916908363ffffffff1602179055505b8760040160008563ffffffff1663ffffffff16815260200190815260200160002060006101000a81549063ffffffff0219169055868860040160008a60000160049054906101000a900463ffffffff1663ffffffff1663ffffffff16815260200190815260200160002060006101000a81548163ffffffff021916908363ffffffff1602179055508760000160049054906101000a900463ffffffff168560000160046101000a81548163ffffffff021916908363ffffffff16021790555060018560000160016101000a81548160ff02191690831515021790555084600001600281819054906101000a900460010b809291906113749061244e565b91906101000a81548161ffff021916908360010b61ffff1602179055505060028860000160049054906101000a900463ffffffff166113b39190612478565b8860000160046101000a81548163ffffffff021916908363ffffffff16021790555060006113f48760000160149054906101000a900463ffffffff1661180c565b346113ff9190612198565b90508260000160009054906101000a900473ffffffffffffffffffffffffffffffffffffffff1673ffffffffffffffffffffffffffffffffffffffff166108fc829081150290604051600060405180830381858888f1935050505015801561146b573d6000803e3d6000fd5b506114778d888a611a4b565b50505050505050505050505050565b600080600260008573ffffffffffffffffffffffffffffffffffffffff1673ffffffffffffffffffffffffffffffffffffffff16815260200190815260200160002060009054906101000a900463ffffffff1663ffffffff16111561153c57600260008473ffffffffffffffffffffffffffffffffffffffff1673ffffffffffffffffffffffffffffffffffffffff16815260200190815260200160002060009054906101000a900463ffffffff169050611654565b6000600180816001815401808255809150500390600052602060002090600202019050838160000160006101000a81548173ffffffffffffffffffffffffffffffffffffffff021916908373ffffffffffffffffffffffffffffffffffffffff16021790555060008363ffffffff16146115b657826115b9565b60015b8160000160146101000a81548163ffffffff021916908363ffffffff1602179055506000600180805490506115ee9190612198565b905080600260008773ffffffffffffffffffffffffffffffffffffffff1673ffffffffffffffffffffffffffffffffffffffff16815260200190815260200160002060006101000a81548163ffffffff021916908363ffffffff16021790555080925050505b92915050565b600060018263ffffffff16815481106116765761167561213a565b5b9060005260206000209060020201905060008160010160008561ffff1661ffff16815260200190815260200160002090506000808561ffff16815481106116c0576116bf61213a565b5b90600052602060002090600602019050838160040160008360000160009054906101000a900463ffffffff1663ffffffff1663ffffffff16815260200190815260200160002060006101000a81548163ffffffff021916908363ffffffff1602179055508060000160009054906101000a900463ffffffff168260000160046101000a81548163ffffffff021916908363ffffffff16021790555060028160000160009054906101000a900463ffffffff1661177c9190612478565b8160000160006101000a81548163ffffffff021916908363ffffffff16021790555081600001600281819054906101000a900460010b809291906117bf9061244e565b91906101000a81548161ffff021916908360010b61ffff160217905550505050505050565b60007ff0c57e16840df040f15088dc2f81fe391c3923bec73e23a9662efc9c229c6a00905090565b60008060018363ffffffff16815481106118295761182861213a565b5b90600052602060002090600202019050600060018260000160149054906101000a900463ffffffff1663ffffffff16815481106118695761186861213a565b5b90600052602060002090600202019050600060018260000160149054906101000a900463ffffffff1663ffffffff16815481106118a9576118a861213a565b5b9060005260206000209060020201905060006118c634600d611afe565b905060006118d5346008611afe565b905060006118e4346005611afe565b90508560000160009054906101000a900473ffffffffffffffffffffffffffffffffffffffff1673ffffffffffffffffffffffffffffffffffffffff166108fc849081150290604051600060405180830381858888f19350505050158015611950573d6000803e3d6000fd5b508460000160009054906101000a900473ffffffffffffffffffffffffffffffffffffffff1673ffffffffffffffffffffffffffffffffffffffff166108fc839081150290604051600060405180830381858888f193505050501580156119bb573d6000803e3d6000fd5b508360000160009054906101000a900473ffffffffffffffffffffffffffffffffffffffff1673ffffffffffffffffffffffffffffffffffffffff166108fc829081150290604051600060405180830381858888f19350505050158015611a26573d6000803e3d6000fd5b50808284611a3491906124b0565b611a3e91906124b0565b9650505050505050919050565b60005b8361ffff168161ffff161015611af85760008360010160008361ffff1661ffff168152602001908152602001600020905060018160000160006101000a81548160ff0219169083151502179055508060000160019054906101000a900460ff168015611ad4575060008160000160049054906101000a900463ffffffff1663ffffffff16145b15611ae457611ae3828461165a565b5b508080611af0906124e4565b915050611a4e565b50505050565b600081606484611b0e919061253d565b611b18919061256e565b905092915050565b6040518060800160405280600015158152602001600015158152602001600060010b8152602001600063ffffffff1681525090565b6000819050919050565b611b6881611b55565b82525050565b6000602082019050611b836000830184611b5f565b92915050565b600080fd5b600073ffffffffffffffffffffffffffffffffffffffff82169050919050565b6000611bb982611b8e565b9050919050565b611bc981611bae565b8114611bd457600080fd5b50565b600081359050611be681611bc0565b92915050565b600061ffff82169050919050565b611c0381611bec565b8114611c0e57600080fd5b50565b600081359050611c2081611bfa565b92915050565b60008115159050919050565b611c3b81611c26565b8114611c4657600080fd5b50565b600081359050611c5881611c32565b92915050565b600080600060608486031215611c7757611c76611b89565b5b6000611c8586828701611bd7565b9350506020611c9686828701611c11565b9250506040611ca786828701611c49565b9150509250925092565b600063ffffffff82169050919050565b611cca81611cb1565b8114611cd557600080fd5b50565b600081359050611ce781611cc1565b92915050565b60008060408385031215611d0457611d03611b89565b5b6000611d1285828601611c11565b9250506020611d2385828601611cd8565b9150509250929050565b611d3681611cb1565b82525050565b6000602082019050611d516000830184611d2d565b92915050565b600060208284031215611d6d57611d6c611b89565b5b6000611d7b84828501611bd7565b91505092915050565b611d8d81611b55565b8114611d9857600080fd5b50565b600081359050611daa81611d84565b92915050565b600080600060608486031215611dc957611dc8611b89565b5b6000611dd786828701611d9b565b9350506020611de886828701611d9b565b9250506040611df986828701611d9b565b9150509250925092565b600060208284031215611e1957611e18611b89565b5b6000611e2784828501611d9b565b91505092915050565b600060a082019050611e456000830188611d2d565b611e526020830187611d2d565b611e5f6040830186611b5f565b611e6c6060830185611b5f565b611e796080830184611b5f565b9695505050505050565b60008060408385031215611e9a57611e99611b89565b5b6000611ea885828601611bd7565b9250506020611eb985828601611c11565b9150509250929050565b60008060408385031215611eda57611ed9611b89565b5b6000611ee885828601611c11565b9250506020611ef985828601611d9b565b9150509250929050565b611f0c81611c26565b82525050565b60008160010b9050919050565b611f2881611f12565b82525050565b611f3781611cb1565b82525050565b608082016000820151611f536000850182611f03565b506020820151611f666020850182611f03565b506040820151611f796040850182611f1f565b506060820151611f8c6060850182611f2e565b50505050565b6000608082019050611fa76000830184611f3d565b92915050565b611fb681611bae565b82525050565b6000604082019050611fd16000830185611fad565b611fde6020830184611d2d565b9392505050565b600082825260208201905092915050565b7f4f6e6c79206f776e657221000000000000000000000000000000000000000000600082015250565b600061202c600b83611fe5565b915061203782611ff6565b602082019050919050565b6000602082019050818103600083015261205b8161201f565b9050919050565b7f537472656574206e6f7420666f756e642e000000000000000000000000000000600082015250565b6000612098601183611fe5565b91506120a382612062565b602082019050919050565b600060208201905081810360008301526120c78161208b565b9050919050565b7f4e6f20636f6e74726163742e0000000000000000000000000000000000000000600082015250565b6000612104600c83611fe5565b915061210f826120ce565b602082019050919050565b60006020820190508181036000830152612133816120f7565b9050919050565b7f4e487b7100000000000000000000000000000000000000000000000000000000600052603260045260246000fd5b7f4e487b7100000000000000000000000000000000000000000000000000000000600052601160045260246000fd5b60006121a382611b55565b91506121ae83611b55565b92508282039050818111156121c6576121c5612169565b5b92915050565b6000819050919050565b600067ffffffffffffffff82169050919050565b6000819050919050565b600061220f61220a612205846121cc565b6121ea565b6121d6565b9050919050565b61221f816121f4565b82525050565b600060208201905061223a6000830184612216565b92915050565b7f506172656e74207265666572656e6365206e6f7420666f756e642e0000000000600082015250565b6000612276601b83611fe5565b915061228182612240565b602082019050919050565b600060208201905081810360008301526122a581612269565b9050919050565b7f53756d20697320696e76616c69642e0000000000000000000000000000000000600082015250565b60006122e2600f83611fe5565b91506122ed826122ac565b602082019050919050565b60006020820190508181036000830152612311816122d5565b9050919050565b7f5468652073747265657420636c6f736564207965742e00000000000000000000600082015250565b600061234e601683611fe5565b915061235982612318565b602082019050919050565b6000602082019050818103600083015261237d81612341565b9050919050565b7f546865207374726565742068617320616c7265616479206265656e207075726360008201527f68617365642e0000000000000000000000000000000000000000000000000000602082015250565b60006123e0602683611fe5565b91506123eb82612384565b604082019050919050565b6000602082019050818103600083015261240f816123d3565b9050919050565b600061242182611cb1565b915061242c83611cb1565b9250828203905063ffffffff81111561244857612447612169565b5b92915050565b600061245982611f12565b9150617fff820361246d5761246c612169565b5b600182019050919050565b600061248382611cb1565b915061248e83611cb1565b9250828201905063ffffffff8111156124aa576124a9612169565b5b92915050565b60006124bb82611b55565b91506124c683611b55565b92508282019050808211156124de576124dd612169565b5b92915050565b60006124ef82611bec565b915061ffff820361250357612502612169565b5b600182019050919050565b7f4e487b7100000000000000000000000000000000000000000000000000000000600052601260045260246000fd5b600061254882611b55565b915061255383611b55565b9250826125635761256261250e565b5b828204905092915050565b600061257982611b55565b915061258483611b55565b925082820261259281611b55565b915082820484148315176125a9576125a8612169565b5b509291505056fea26469706673582212208e323014b5f4185a6ec4aed5ff080c5fa23780157832aa0a56ef543fa32e295664736f6c63430008140033",
  "linkReferences": {},
  "deployedLinkReferences": {}
}