{
  "_format": "hh-sol-artifact-1",
  "contractName": "BillionairePari",
  "sourceName": "contracts/BillionairePari.sol",
  "abi": [
    {
      "inputs": [],
      "stateMutability": "nonpayable",
      "type": "constructor"
    },
    {
      "anonymous": false,
      "inputs": [
        {
          "indexed": true,
          "internalType": "address",
          "name": "adr",
          "type": "address"
        },
        {
          "indexed": false,
          "internalType": "uint16",
          "name": "ind",
          "type": "uint16"
        }
      ],
      "name": "LoseEvent",
      "type": "event"
    },
    {
      "anonymous": false,
      "inputs": [
        {
          "indexed": true,
          "internalType": "address",
          "name": "adr",
          "type": "address"
        },
        {
          "indexed": false,
          "internalType": "uint16",
          "name": "ind",
          "type": "uint16"
        },
        {
          "indexed": false,
          "internalType": "uint256",
          "name": "sum",
          "type": "uint256"
        }
      ],
      "name": "WinEvent",
      "type": "event"
    },
    {
      "inputs": [
        {
          "internalType": "uint256",
          "name": "val",
          "type": "uint256"
        },
        {
          "internalType": "uint256",
          "name": "commiss",
          "type": "uint256"
        }
      ],
      "name": "addBid",
      "outputs": [],
      "stateMutability": "nonpayable",
      "type": "function"
    },
    {
      "inputs": [
        {
          "internalType": "uint16",
          "name": "ind",
          "type": "uint16"
        },
        {
          "internalType": "uint256",
          "name": "val",
          "type": "uint256"
        },
        {
          "internalType": "uint256",
          "name": "commiss",
          "type": "uint256"
        },
        {
          "internalType": "bool",
          "name": "enable",
          "type": "bool"
        }
      ],
      "name": "changeBid",
      "outputs": [],
      "stateMutability": "nonpayable",
      "type": "function"
    },
    {
      "inputs": [
        {
          "internalType": "uint16",
          "name": "ind",
          "type": "uint16"
        }
      ],
      "name": "getBid",
      "outputs": [
        {
          "components": [
            {
              "internalType": "address",
              "name": "openAdr",
              "type": "address"
            },
            {
              "internalType": "uint256",
              "name": "val",
              "type": "uint256"
            },
            {
              "internalType": "uint256",
              "name": "commission",
              "type": "uint256"
            },
            {
              "internalType": "bool",
              "name": "enabled",
              "type": "bool"
            }
          ],
          "internalType": "struct BillionairePari.Bid",
          "name": "",
          "type": "tuple"
        }
      ],
      "stateMutability": "view",
      "type": "function"
    },
    {
      "inputs": [],
      "name": "getBidsCount",
      "outputs": [
        {
          "internalType": "uint256",
          "name": "",
          "type": "uint256"
        }
      ],
      "stateMutability": "view",
      "type": "function"
    },
    {
      "inputs": [],
      "name": "getCurrentSum",
      "outputs": [
        {
          "internalType": "uint256",
          "name": "",
          "type": "uint256"
        }
      ],
      "stateMutability": "view",
      "type": "function"
    },
    {
      "inputs": [],
      "name": "ownerTransfer",
      "outputs": [],
      "stateMutability": "nonpayable",
      "type": "function"
    },
    {
      "inputs": [
        {
          "internalType": "uint16",
          "name": "ind",
          "type": "uint16"
        }
      ],
      "name": "setBid",
      "outputs": [],
      "stateMutability": "payable",
      "type": "function"
    },
    {
      "inputs": [
        {
          "internalType": "uint16",
          "name": "ind",
          "type": "uint16"
        }
      ],
      "name": "withdraw",
      "outputs": [],
      "stateMutability": "nonpayable",
      "type": "function"
    }
  ],
  "bytecode": "0x608060405234801561001057600080fd5b5033600160006101000a81548173ffffffffffffffffffffffffffffffffffffffff021916908373ffffffffffffffffffffffffffffffffffffffff1602179055506000600281905550611697806100696000396000f3fe60806040526004361061007b5760003560e01c806363505ae81161004e57806363505ae814610138578063aed9ecf514610163578063d522124c1461018e578063f537d8d2146101aa5761007b565b80630979c7801461008057806321b23f04146100a95780633d972839146100d25780634e2787ee146100fb575b600080fd5b34801561008c57600080fd5b506100a760048036038101906100a29190610faa565b6101c1565b005b3480156100b557600080fd5b506100d060048036038101906100cb9190611011565b61038f565b005b3480156100de57600080fd5b506100f960048036038101906100f49190611051565b6104ba565b005b34801561010757600080fd5b50610122600480360381019061011d9190611051565b6106a6565b60405161012f9190611132565b60405180910390f35b34801561014457600080fd5b5061014d6107b8565b60405161015a919061115c565b60405180910390f35b34801561016f57600080fd5b506101786107c4565b604051610185919061115c565b60405180910390f35b6101a860048036038101906101a39190611051565b61085e565b005b3480156101b657600080fd5b506101bf610d65565b005b600160009054906101000a900473ffffffffffffffffffffffffffffffffffffffff1673ffffffffffffffffffffffffffffffffffffffff163373ffffffffffffffffffffffffffffffffffffffff1614610251576040517f08c379a0000000000000000000000000000000000000000000000000000000008152600401610248906111d4565b60405180910390fd5b838061ffff166000805490501161029d576040517f08c379a000000000000000000000000000000000000000000000000000000000815260040161029490611240565b60405180910390fd5b6000808661ffff16815481106102b6576102b5611260565b5b90600052602060002090600402019050600073ffffffffffffffffffffffffffffffffffffffff168160000160009054906101000a900473ffffffffffffffffffffffffffffffffffffffff1673ffffffffffffffffffffffffffffffffffffffff1614610359576040517f08c379a0000000000000000000000000000000000000000000000000000000008152600401610350906112db565b60405180910390fd5b848160010181905550838160020181905550828160030160006101000a81548160ff021916908315150217905550505050505050565b600160009054906101000a900473ffffffffffffffffffffffffffffffffffffffff1673ffffffffffffffffffffffffffffffffffffffff163373ffffffffffffffffffffffffffffffffffffffff161461041f576040517f08c379a0000000000000000000000000000000000000000000000000000000008152600401610416906111d4565b60405180910390fd5b600080600181600181540180825580915050039060005260206000209060040201905082816001018190555081816002018190555060018160030160006101000a81548160ff02191690831515021790555060008160000160006101000a81548173ffffffffffffffffffffffffffffffffffffffff021916908373ffffffffffffffffffffffffffffffffffffffff160217905550505050565b808061ffff1660008054905011610506576040517f08c379a00000000000000000000000000000000000000000000000000000000081526004016104fd90611240565b60405180910390fd5b6000808361ffff168154811061051f5761051e611260565b5b906000526020600020906004020190508060030160009054906101000a900460ff16610580576040517f08c379a000000000000000000000000000000000000000000000000000000000815260040161057790611347565b60405180910390fd5b3373ffffffffffffffffffffffffffffffffffffffff168160000160009054906101000a900473ffffffffffffffffffffffffffffffffffffffff1673ffffffffffffffffffffffffffffffffffffffff1614610612576040517f08c379a0000000000000000000000000000000000000000000000000000000008152600401610609906113b3565b60405180910390fd5b60008160000160006101000a81548173ffffffffffffffffffffffffffffffffffffffff021916908373ffffffffffffffffffffffffffffffffffffffff1602179055503373ffffffffffffffffffffffffffffffffffffffff166108fc82600101549081150290604051600060405180830381858888f193505050501580156106a0573d6000803e3d6000fd5b50505050565b6106ae610ebd565b818061ffff16600080549050116106fa576040517f08c379a00000000000000000000000000000000000000000000000000000000081526004016106f190611240565b60405180910390fd5b60008361ffff168154811061071257610711611260565b5b90600052602060002090600402016040518060800160405290816000820160009054906101000a900473ffffffffffffffffffffffffffffffffffffffff1673ffffffffffffffffffffffffffffffffffffffff1673ffffffffffffffffffffffffffffffffffffffff16815260200160018201548152602001600282015481526020016003820160009054906101000a900460ff161515151581525050915050919050565b60008080549050905090565b6000600160009054906101000a900473ffffffffffffffffffffffffffffffffffffffff1673ffffffffffffffffffffffffffffffffffffffff163373ffffffffffffffffffffffffffffffffffffffff1614610856576040517f08c379a000000000000000000000000000000000000000000000000000000000815260040161084d906111d4565b60405180910390fd5b600254905090565b808061ffff16600080549050116108aa576040517f08c379a00000000000000000000000000000000000000000000000000000000081526004016108a190611240565b60405180910390fd5b3360008173ffffffffffffffffffffffffffffffffffffffff163b14610905576040517f08c379a00000000000000000000000000000000000000000000000000000000081526004016108fc9061141f565b60405180910390fd5b6000808461ffff168154811061091e5761091d611260565b5b906000526020600020906004020190508060030160009054906101000a900460ff1661097f576040517f08c379a000000000000000000000000000000000000000000000000000000000815260040161097690611347565b60405180910390fd5b80600101548160020154610993919061146e565b34146109d4576040517f08c379a00000000000000000000000000000000000000000000000000000000081526004016109cb906114ee565b60405180910390fd5b8060020154600260008282546109ea919061146e565b92505081905550600073ffffffffffffffffffffffffffffffffffffffff168160000160009054906101000a900473ffffffffffffffffffffffffffffffffffffffff1673ffffffffffffffffffffffffffffffffffffffff1603610a9157338160000160006101000a81548173ffffffffffffffffffffffffffffffffffffffff021916908373ffffffffffffffffffffffffffffffffffffffff160217905550610d5f565b610a99610e6a565b15610bf0578060000160009054906101000a900473ffffffffffffffffffffffffffffffffffffffff1673ffffffffffffffffffffffffffffffffffffffff166108fc60028360010154610aed919061150e565b9081150290604051600060405180830381858888f19350505050158015610b18573d6000803e3d6000fd5b508060000160009054906101000a900473ffffffffffffffffffffffffffffffffffffffff1673ffffffffffffffffffffffffffffffffffffffff167f9f0008247de80d924ce67f1f26e5bac4c3a4b2bb4b9bdc18d288cd0503aa56db8560028460010154610b87919061150e565b604051610b9592919061155f565b60405180910390a23373ffffffffffffffffffffffffffffffffffffffff167fbabe4200ead62e9af281a3d3fb66ea59f98c53dcab719cfa83280dfa8bf48a0f85604051610be39190611588565b60405180910390a2610d1a565b3373ffffffffffffffffffffffffffffffffffffffff166108fc60028360010154610c1b919061150e565b9081150290604051600060405180830381858888f19350505050158015610c46573d6000803e3d6000fd5b503373ffffffffffffffffffffffffffffffffffffffff167f9f0008247de80d924ce67f1f26e5bac4c3a4b2bb4b9bdc18d288cd0503aa56db8560028460010154610c91919061150e565b604051610c9f92919061155f565b60405180910390a28060000160009054906101000a900473ffffffffffffffffffffffffffffffffffffffff1673ffffffffffffffffffffffffffffffffffffffff167fbabe4200ead62e9af281a3d3fb66ea59f98c53dcab719cfa83280dfa8bf48a0f85604051610d119190611588565b60405180910390a25b60008160000160006101000a81548173ffffffffffffffffffffffffffffffffffffffff021916908373ffffffffffffffffffffffffffffffffffffffff1602179055505b50505050565b600160009054906101000a900473ffffffffffffffffffffffffffffffffffffffff1673ffffffffffffffffffffffffffffffffffffffff163373ffffffffffffffffffffffffffffffffffffffff1614610df5576040517f08c379a0000000000000000000000000000000000000000000000000000000008152600401610dec906111d4565b60405180910390fd5b600160009054906101000a900473ffffffffffffffffffffffffffffffffffffffff1673ffffffffffffffffffffffffffffffffffffffff166108fc6002549081150290604051600060405180830381858888f19350505050158015610e5f573d6000803e3d6000fd5b506000600281905550565b600060016002610e78610e88565b610e8291906115d2565b14905090565b6000444243604051602001610e9f93929190611624565b6040516020818303038152906040528051906020012060001c905090565b6040518060800160405280600073ffffffffffffffffffffffffffffffffffffffff16815260200160008152602001600081526020016000151581525090565b600080fd5b600061ffff82169050919050565b610f1981610f02565b8114610f2457600080fd5b50565b600081359050610f3681610f10565b92915050565b6000819050919050565b610f4f81610f3c565b8114610f5a57600080fd5b50565b600081359050610f6c81610f46565b92915050565b60008115159050919050565b610f8781610f72565b8114610f9257600080fd5b50565b600081359050610fa481610f7e565b92915050565b60008060008060808587031215610fc457610fc3610efd565b5b6000610fd287828801610f27565b9450506020610fe387828801610f5d565b9350506040610ff487828801610f5d565b925050606061100587828801610f95565b91505092959194509250565b6000806040838503121561102857611027610efd565b5b600061103685828601610f5d565b925050602061104785828601610f5d565b9150509250929050565b60006020828403121561106757611066610efd565b5b600061107584828501610f27565b91505092915050565b600073ffffffffffffffffffffffffffffffffffffffff82169050919050565b60006110a98261107e565b9050919050565b6110b98161109e565b82525050565b6110c881610f3c565b82525050565b6110d781610f72565b82525050565b6080820160008201516110f360008501826110b0565b50602082015161110660208501826110bf565b50604082015161111960408501826110bf565b50606082015161112c60608501826110ce565b50505050565b600060808201905061114760008301846110dd565b92915050565b61115681610f3c565b82525050565b6000602082019050611171600083018461114d565b92915050565b600082825260208201905092915050565b7f4f6e6c79206f776e657221000000000000000000000000000000000000000000600082015250565b60006111be600b83611177565b91506111c982611188565b602082019050919050565b600060208201905081810360008301526111ed816111b1565b9050919050565b7f426964206e6f7420666f756e642e000000000000000000000000000000000000600082015250565b600061122a600e83611177565b9150611235826111f4565b602082019050919050565b600060208201905081810360008301526112598161121d565b9050919050565b7f4e487b7100000000000000000000000000000000000000000000000000000000600052603260045260246000fd5b7f426964206973206f70656e2e0000000000000000000000000000000000000000600082015250565b60006112c5600c83611177565b91506112d08261128f565b602082019050919050565b600060208201905081810360008301526112f4816112b8565b9050919050565b7f4269642064697361626c65642100000000000000000000000000000000000000600082015250565b6000611331600d83611177565b915061133c826112fb565b602082019050919050565b6000602082019050818103600083015261136081611324565b9050919050565b7f54686973206973206e6f7420796f757220626574210000000000000000000000600082015250565b600061139d601583611177565b91506113a882611367565b602082019050919050565b600060208201905081810360008301526113cc81611390565b9050919050565b7f4e6f20636f6e74726163742e0000000000000000000000000000000000000000600082015250565b6000611409600c83611177565b9150611414826113d3565b602082019050919050565b60006020820190508181036000830152611438816113fc565b9050919050565b7f4e487b7100000000000000000000000000000000000000000000000000000000600052601160045260246000fd5b600061147982610f3c565b915061148483610f3c565b925082820190508082111561149c5761149b61143f565b5b92915050565b7f53756d20697320696e76616c69642e0000000000000000000000000000000000600082015250565b60006114d8600f83611177565b91506114e3826114a2565b602082019050919050565b60006020820190508181036000830152611507816114cb565b9050919050565b600061151982610f3c565b915061152483610f3c565b925082820261153281610f3c565b915082820484148315176115495761154861143f565b5b5092915050565b61155981610f02565b82525050565b60006040820190506115746000830185611550565b611581602083018461114d565b9392505050565b600060208201905061159d6000830184611550565b92915050565b7f4e487b7100000000000000000000000000000000000000000000000000000000600052601260045260246000fd5b60006115dd82610f3c565b91506115e883610f3c565b9250826115f8576115f76115a3565b5b828206905092915050565b6000819050919050565b61161e61161982610f3c565b611603565b82525050565b6000611630828661160d565b602082019150611640828561160d565b602082019150611650828461160d565b60208201915081905094935050505056fea2646970667358221220e9617f2487a0f38ce14bdd96b230154d5cc205c65a6faa1e5afdc1fd85a3546664736f6c63430008140033",
  "linkReferences": {},
  "deployedLinkReferences": {}
}